{
    "_format": "hh-sol-artifact-1",
    "contractName": "TodoList",
    "sourceName": "contracts/TodoList.sol",
    "abi": [
        {
            "anonymous": false,
            "inputs": [
                {
                    "indexed": false,
                    "internalType": "uint256",
                    "name": "id",
                    "type": "uint256"
                },
                {
                    "indexed": false,
                    "internalType": "bool",
                    "name": "completed",
                    "type": "bool"
                }
            ],
            "name": "TaskCompleted",
            "type": "event"
        },
        {
            "anonymous": false,
            "inputs": [
                {
                    "indexed": false,
                    "internalType": "uint256",
                    "name": "id",
                    "type": "uint256"
                },
                {
                    "indexed": false,
                    "internalType": "string",
                    "name": "content",
                    "type": "string"
                },
                {
                    "indexed": false,
                    "internalType": "bool",
                    "name": "completed",
                    "type": "bool"
                },
                {
                    "indexed": false,
                    "internalType": "uint256",
                    "name": "timestamp",
                    "type": "uint256"
                },
                {
                    "indexed": false,
                    "internalType": "address",
                    "name": "owner",
                    "type": "address"
                }
            ],
            "name": "TaskCreated",
            "type": "event"
        },
        {
            "anonymous": false,
            "inputs": [
                {
                    "indexed": false,
                    "internalType": "uint256",
                    "name": "id",
                    "type": "uint256"
                }
            ],
            "name": "TaskDeleted",
            "type": "event"
        },
        {
            "anonymous": false,
            "inputs": [
                {
                    "indexed": false,
                    "internalType": "uint256",
                    "name": "id",
                    "type": "uint256"
                },
                {
                    "indexed": false,
                    "internalType": "string",
                    "name": "content",
                    "type": "string"
                }
            ],
            "name": "TaskUpdated",
            "type": "event"
        },
        {
            "inputs": [
                {
                    "internalType": "uint256",
                    "name": "_id",
                    "type": "uint256"
                }
            ],
            "name": "completeTask",
            "outputs": [],
            "stateMutability": "nonpayable",
            "type": "function"
        },
        {
            "inputs": [
                {
                    "internalType": "string",
                    "name": "_content",
                    "type": "string"
                }
            ],
            "name": "createTask",
            "outputs": [],
            "stateMutability": "nonpayable",
            "type": "function"
        },
        {
            "inputs": [
                {
                    "internalType": "uint256",
                    "name": "_id",
                    "type": "uint256"
                }
            ],
            "name": "deleteTask",
            "outputs": [],
            "stateMutability": "nonpayable",
            "type": "function"
        },
        {
            "inputs": [
                {
                    "internalType": "uint256",
                    "name": "_id",
                    "type": "uint256"
                }
            ],
            "name": "getTaskById",
            "outputs": [
                {
                    "components": [
                        {
                            "internalType": "uint256",
                            "name": "id",
                            "type": "uint256"
                        },
                        {
                            "internalType": "string",
                            "name": "content",
                            "type": "string"
                        },
                        {
                            "internalType": "bool",
                            "name": "completed",
                            "type": "bool"
                        },
                        {
                            "internalType": "uint256",
                            "name": "timestamp",
                            "type": "uint256"
                        },
                        {
                            "internalType": "bool",
                            "name": "isDeleted",
                            "type": "bool"
                        },
                        {
                            "internalType": "address",
                            "name": "taskOwner",
                            "type": "address"
                        }
                    ],
                    "internalType": "struct TodoList.Task",
                    "name": "",
                    "type": "tuple"
                }
            ],
            "stateMutability": "view",
            "type": "function"
        },
        {
            "inputs": [
                {
                    "internalType": "address",
                    "name": "_owner",
                    "type": "address"
                }
            ],
            "name": "getTasksByOwner",
            "outputs": [
                {
                    "components": [
                        {
                            "internalType": "uint256",
                            "name": "id",
                            "type": "uint256"
                        },
                        {
                            "internalType": "string",
                            "name": "content",
                            "type": "string"
                        },
                        {
                            "internalType": "bool",
                            "name": "completed",
                            "type": "bool"
                        },
                        {
                            "internalType": "uint256",
                            "name": "timestamp",
                            "type": "uint256"
                        },
                        {
                            "internalType": "bool",
                            "name": "isDeleted",
                            "type": "bool"
                        },
                        {
                            "internalType": "address",
                            "name": "taskOwner",
                            "type": "address"
                        }
                    ],
                    "internalType": "struct TodoList.Task[]",
                    "name": "",
                    "type": "tuple[]"
                }
            ],
            "stateMutability": "view",
            "type": "function"
        },
        {
            "inputs": [],
            "name": "taskCount",
            "outputs": [
                {
                    "internalType": "uint256",
                    "name": "",
                    "type": "uint256"
                }
            ],
            "stateMutability": "view",
            "type": "function"
        },
        {
            "inputs": [
                {
                    "internalType": "uint256",
                    "name": "",
                    "type": "uint256"
                }
            ],
            "name": "taskExists",
            "outputs": [
                {
                    "internalType": "bool",
                    "name": "",
                    "type": "bool"
                }
            ],
            "stateMutability": "view",
            "type": "function"
        },
        {
            "inputs": [
                {
                    "internalType": "uint256",
                    "name": "",
                    "type": "uint256"
                }
            ],
            "name": "taskToOwner",
            "outputs": [
                {
                    "internalType": "address",
                    "name": "",
                    "type": "address"
                }
            ],
            "stateMutability": "view",
            "type": "function"
        },
        {
            "inputs": [
                {
                    "internalType": "uint256",
                    "name": "",
                    "type": "uint256"
                }
            ],
            "name": "tasks",
            "outputs": [
                {
                    "internalType": "uint256",
                    "name": "id",
                    "type": "uint256"
                },
                {
                    "internalType": "string",
                    "name": "content",
                    "type": "string"
                },
                {
                    "internalType": "bool",
                    "name": "completed",
                    "type": "bool"
                },
                {
                    "internalType": "uint256",
                    "name": "timestamp",
                    "type": "uint256"
                },
                {
                    "internalType": "bool",
                    "name": "isDeleted",
                    "type": "bool"
                },
                {
                    "internalType": "address",
                    "name": "taskOwner",
                    "type": "address"
                }
            ],
            "stateMutability": "view",
            "type": "function"
        },
        {
            "inputs": [
                {
                    "internalType": "uint256",
                    "name": "_id",
                    "type": "uint256"
                }
            ],
            "name": "toggleTaskCompleted",
            "outputs": [],
            "stateMutability": "nonpayable",
            "type": "function"
        },
        {
            "inputs": [
                {
                    "internalType": "uint256",
                    "name": "_id",
                    "type": "uint256"
                },
                {
                    "internalType": "string",
                    "name": "_content",
                    "type": "string"
                }
            ],
            "name": "updateTask",
            "outputs": [],
            "stateMutability": "nonpayable",
            "type": "function"
        }
    ],
    "bytecode": "0x608060405234801561001057600080fd5b50611e08806100206000396000f3fe608060405234801561001057600080fd5b50600436106100a95760003560e01c80638d977672116100715780638d9776721461014e578063976217cd14610183578063b6cb58a5146101b3578063d90583df146101d1578063e1e2955814610201578063f0f39ce41461021d576100a9565b8063111002aa146100ae578063560f3192146100ca5780636140dd60146100e65780636641c6c41461010257806386533f6c14610132575b600080fd5b6100c860048036038101906100c391906112c4565b61024d565b005b6100e460048036038101906100df9190611343565b61045b565b005b61010060048036038101906100fb9190611343565b6105eb565b005b61011c60048036038101906101179190611343565b61079c565b60405161012991906113b1565b60405180910390f35b61014c600480360381019061014791906113cc565b6107cf565b005b61016860048036038101906101639190611343565b6109c5565b60405161017a969594939291906114d1565b60405180910390f35b61019d60048036038101906101989190611343565b610ad3565b6040516101aa9190611639565b60405180910390f35b6101bb610ca1565b6040516101c8919061165b565b60405180910390f35b6101eb60048036038101906101e69190611343565b610ca7565b6040516101f89190611676565b60405180910390f35b61021b60048036038101906102169190611343565b610cc7565b005b610237600480360381019061023291906116bd565b610da7565b6040516102449190611835565b60405180910390f35b60006001549050600042905060006040518060c001604052808481526020018581526020016000151581526020018381526020016000151581526020013373ffffffffffffffffffffffffffffffffffffffff1681525090806001815401808255809150506001900390600052602060002090600502016000909190919091506000820151816000015560208201518160010190816102ec9190611a63565b5060408201518160020160006101000a81548160ff0219169083151502179055506060820151816003015560808201518160040160006101000a81548160ff02191690831515021790555060a08201518160040160016101000a81548173ffffffffffffffffffffffffffffffffffffffff021916908373ffffffffffffffffffffffffffffffffffffffff16021790555050506001600081548092919061039390611b64565b9190505550336002600084815260200190815260200160002060006101000a81548173ffffffffffffffffffffffffffffffffffffffff021916908373ffffffffffffffffffffffffffffffffffffffff16021790555060016003600084815260200190815260200160002060006101000a81548160ff0219169083151502179055507fffbb12836106502e4415e09bebe0fe47447c1160243cf68e66ea8aec0c99f55782846000843360405161044e959493929190611bac565b60405180910390a1505050565b6003600082815260200190815260200160002060009054906101000a900460ff166104bb576040517f08c379a00000000000000000000000000000000000000000000000000000000081526004016104b290611c52565b60405180910390fd5b3373ffffffffffffffffffffffffffffffffffffffff16600082815481106104e6576104e5611c72565b5b906000526020600020906005020160040160019054906101000a900473ffffffffffffffffffffffffffffffffffffffff1673ffffffffffffffffffffffffffffffffffffffff161461056e576040517f08c379a000000000000000000000000000000000000000000000000000000000815260040161056590611ced565b60405180910390fd5b600080828154811061058357610582611c72565b5b9060005260206000209060050201905060018160040160006101000a81548160ff0219169083151502179055507fd078b251d950cc55c44340be1db732337ef4939a76e1367ee271ad2cb19c46af826040516105df919061165b565b60405180910390a15050565b6003600082815260200190815260200160002060009054906101000a900460ff1661064b576040517f08c379a000000000000000000000000000000000000000000000000000000000815260040161064290611c52565b60405180910390fd5b6000818154811061065f5761065e611c72565b5b906000526020600020906005020160040160009054906101000a900460ff16156106be576040517f08c379a00000000000000000000000000000000000000000000000000000000081526004016106b590611d59565b60405180910390fd5b600081815481106106d2576106d1611c72565b5b906000526020600020906005020160020160009054906101000a900460ff16156000828154811061070657610705611c72565b5b906000526020600020906005020160020160006101000a81548160ff0219169083151502179055507fe21fa966ca5cd02748c0752352d18c48165e61cb55b4c29cccf924b5a95fcff1816000838154811061076457610763611c72565b5b906000526020600020906005020160020160009054906101000a900460ff16604051610791929190611d79565b60405180910390a150565b60026020528060005260406000206000915054906101000a900473ffffffffffffffffffffffffffffffffffffffff1681565b6003600083815260200190815260200160002060009054906101000a900460ff1661082f576040517f08c379a000000000000000000000000000000000000000000000000000000000815260040161082690611c52565b60405180910390fd5b6000828154811061084357610842611c72565b5b906000526020600020906005020160040160009054906101000a900460ff16156108a2576040517f08c379a000000000000000000000000000000000000000000000000000000000815260040161089990611d59565b60405180910390fd5b3373ffffffffffffffffffffffffffffffffffffffff16600083815481106108cd576108cc611c72565b5b906000526020600020906005020160040160019054906101000a900473ffffffffffffffffffffffffffffffffffffffff1673ffffffffffffffffffffffffffffffffffffffff1614610955576040517f08c379a000000000000000000000000000000000000000000000000000000000815260040161094c90611ced565b60405180910390fd5b806000838154811061096a57610969611c72565b5b906000526020600020906005020160010190816109879190611a63565b507fde038a66d64727fc277f5f5f3d50b98d205e4ae705bfb8ac824cea4877b9be4982826040516109b9929190611da2565b60405180910390a15050565b600081815481106109d557600080fd5b90600052602060002090600502016000915090508060000154908060010180546109fe90611886565b80601f0160208091040260200160405190810160405280929190818152602001828054610a2a90611886565b8015610a775780601f10610a4c57610100808354040283529160200191610a77565b820191906000526020600020905b815481529060010190602001808311610a5a57829003601f168201915b5050505050908060020160009054906101000a900460ff16908060030154908060040160009054906101000a900460ff16908060040160019054906101000a900473ffffffffffffffffffffffffffffffffffffffff16905086565b610adb61111a565b6003600083815260200190815260200160002060009054906101000a900460ff16610b3b576040517f08c379a0000000000000000000000000000000000000000000000000000000008152600401610b3290611c52565b60405180910390fd5b60008281548110610b4f57610b4e611c72565b5b90600052602060002090600502016040518060c001604052908160008201548152602001600182018054610b8290611886565b80601f0160208091040260200160405190810160405280929190818152602001828054610bae90611886565b8015610bfb5780601f10610bd057610100808354040283529160200191610bfb565b820191906000526020600020905b815481529060010190602001808311610bde57829003601f168201915b505050505081526020016002820160009054906101000a900460ff16151515158152602001600382015481526020016004820160009054906101000a900460ff161515151581526020016004820160019054906101000a900473ffffffffffffffffffffffffffffffffffffffff1673ffffffffffffffffffffffffffffffffffffffff1673ffffffffffffffffffffffffffffffffffffffff16815250509050919050565b60015481565b60036020528060005260406000206000915054906101000a900460ff1681565b6003600082815260200190815260200160002060009054906101000a900460ff16610d27576040517f08c379a0000000000000000000000000000000000000000000000000000000008152600401610d1e90611c52565b60405180910390fd5b6000808281548110610d3c57610d3b611c72565b5b9060005260206000209060050201905060018160020160006101000a81548160ff0219169083151502179055507fe21fa966ca5cd02748c0752352d18c48165e61cb55b4c29cccf924b5a95fcff1826001604051610d9b929190611d79565b60405180910390a15050565b60606000808054905067ffffffffffffffff811115610dc957610dc8611199565b5b604051908082528060200260200182016040528015610e0257816020015b610def61111a565b815260200190600190039081610de75790505b5090506000805b60008054905081101561105e578473ffffffffffffffffffffffffffffffffffffffff166002600083815260200190815260200160002060009054906101000a900473ffffffffffffffffffffffffffffffffffffffff1673ffffffffffffffffffffffffffffffffffffffff16148015610eba57506000151560008281548110610e9757610e96611c72565b5b906000526020600020906005020160040160009054906101000a900460ff161515145b1561104b5760008181548110610ed357610ed2611c72565b5b90600052602060002090600502016040518060c001604052908160008201548152602001600182018054610f0690611886565b80601f0160208091040260200160405190810160405280929190818152602001828054610f3290611886565b8015610f7f5780601f10610f5457610100808354040283529160200191610f7f565b820191906000526020600020905b815481529060010190602001808311610f6257829003601f168201915b505050505081526020016002820160009054906101000a900460ff16151515158152602001600382015481526020016004820160009054906101000a900460ff161515151581526020016004820160019054906101000a900473ffffffffffffffffffffffffffffffffffffffff1673ffffffffffffffffffffffffffffffffffffffff1673ffffffffffffffffffffffffffffffffffffffff168152505083838151811061103157611030611c72565b5b6020026020010181905250818061104790611b64565b9250505b808061105690611b64565b915050610e09565b5060008167ffffffffffffffff81111561107b5761107a611199565b5b6040519080825280602002602001820160405280156110b457816020015b6110a161111a565b8152602001906001900390816110995790505b50905060005b8281101561110e578381815181106110d5576110d4611c72565b5b60200260200101518282815181106110f0576110ef611c72565b5b6020026020010181905250808061110690611b64565b9150506110ba565b50809350505050919050565b6040518060c00160405280600081526020016060815260200160001515815260200160008152602001600015158152602001600073ffffffffffffffffffffffffffffffffffffffff1681525090565b6000604051905090565b600080fd5b600080fd5b600080fd5b600080fd5b6000601f19601f8301169050919050565b7f4e487b7100000000000000000000000000000000000000000000000000000000600052604160045260246000fd5b6111d182611188565b810181811067ffffffffffffffff821117156111f0576111ef611199565b5b80604052505050565b600061120361116a565b905061120f82826111c8565b919050565b600067ffffffffffffffff82111561122f5761122e611199565b5b61123882611188565b9050602081019050919050565b82818337600083830152505050565b600061126761126284611214565b6111f9565b90508281526020810184848401111561128357611282611183565b5b61128e848285611245565b509392505050565b600082601f8301126112ab576112aa61117e565b5b81356112bb848260208601611254565b91505092915050565b6000602082840312156112da576112d9611174565b5b600082013567ffffffffffffffff8111156112f8576112f7611179565b5b61130484828501611296565b91505092915050565b6000819050919050565b6113208161130d565b811461132b57600080fd5b50565b60008135905061133d81611317565b92915050565b60006020828403121561135957611358611174565b5b60006113678482850161132e565b91505092915050565b600073ffffffffffffffffffffffffffffffffffffffff82169050919050565b600061139b82611370565b9050919050565b6113ab81611390565b82525050565b60006020820190506113c660008301846113a2565b92915050565b600080604083850312156113e3576113e2611174565b5b60006113f18582860161132e565b925050602083013567ffffffffffffffff81111561141257611411611179565b5b61141e85828601611296565b9150509250929050565b6114318161130d565b82525050565b600081519050919050565b600082825260208201905092915050565b60005b83811015611471578082015181840152602081019050611456565b60008484015250505050565b600061148882611437565b6114928185611442565b93506114a2818560208601611453565b6114ab81611188565b840191505092915050565b60008115159050919050565b6114cb816114b6565b82525050565b600060c0820190506114e66000830189611428565b81810360208301526114f8818861147d565b905061150760408301876114c2565b6115146060830186611428565b61152160808301856114c2565b61152e60a08301846113a2565b979650505050505050565b6115428161130d565b82525050565b600082825260208201905092915050565b600061156482611437565b61156e8185611548565b935061157e818560208601611453565b61158781611188565b840191505092915050565b61159b816114b6565b82525050565b6115aa81611390565b82525050565b600060c0830160008301516115c86000860182611539565b50602083015184820360208601526115e08282611559565b91505060408301516115f56040860182611592565b5060608301516116086060860182611539565b50608083015161161b6080860182611592565b5060a083015161162e60a08601826115a1565b508091505092915050565b6000602082019050818103600083015261165381846115b0565b905092915050565b60006020820190506116706000830184611428565b92915050565b600060208201905061168b60008301846114c2565b92915050565b61169a81611390565b81146116a557600080fd5b50565b6000813590506116b781611691565b92915050565b6000602082840312156116d3576116d2611174565b5b60006116e1848285016116a8565b91505092915050565b600081519050919050565b600082825260208201905092915050565b6000819050602082019050919050565b600060c08301600083015161172e6000860182611539565b50602083015184820360208601526117468282611559565b915050604083015161175b6040860182611592565b50606083015161176e6060860182611539565b5060808301516117816080860182611592565b5060a083015161179460a08601826115a1565b508091505092915050565b60006117ab8383611716565b905092915050565b6000602082019050919050565b60006117cb826116ea565b6117d581856116f5565b9350836020820285016117e785611706565b8060005b858110156118235784840389528151611804858261179f565b945061180f836117b3565b925060208a019950506001810190506117eb565b50829750879550505050505092915050565b6000602082019050818103600083015261184f81846117c0565b905092915050565b7f4e487b7100000000000000000000000000000000000000000000000000000000600052602260045260246000fd5b6000600282049050600182168061189e57607f821691505b6020821081036118b1576118b0611857565b5b50919050565b60008190508160005260206000209050919050565b60006020601f8301049050919050565b600082821b905092915050565b6000600883026119197fffffffffffffffffffffffffffffffffffffffffffffffffffffffffffffffff826118dc565b61192386836118dc565b95508019841693508086168417925050509392505050565b6000819050919050565b600061196061195b6119568461130d565b61193b565b61130d565b9050919050565b6000819050919050565b61197a83611945565b61198e61198682611967565b8484546118e9565b825550505050565b600090565b6119a3611996565b6119ae818484611971565b505050565b5b818110156119d2576119c760008261199b565b6001810190506119b4565b5050565b601f821115611a17576119e8816118b7565b6119f1846118cc565b81016020851015611a00578190505b611a14611a0c856118cc565b8301826119b3565b50505b505050565b600082821c905092915050565b6000611a3a60001984600802611a1c565b1980831691505092915050565b6000611a538383611a29565b9150826002028217905092915050565b611a6c82611437565b67ffffffffffffffff811115611a8557611a84611199565b5b611a8f8254611886565b611a9a8282856119d6565b600060209050601f831160018114611acd5760008415611abb578287015190505b611ac58582611a47565b865550611b2d565b601f198416611adb866118b7565b60005b82811015611b0357848901518255600182019150602085019450602081019050611ade565b86831015611b205784890151611b1c601f891682611a29565b8355505b6001600288020188555050505b505050505050565b7f4e487b7100000000000000000000000000000000000000000000000000000000600052601160045260246000fd5b6000611b6f8261130d565b91507fffffffffffffffffffffffffffffffffffffffffffffffffffffffffffffffff8203611ba157611ba0611b35565b5b600182019050919050565b600060a082019050611bc16000830188611428565b8181036020830152611bd3818761147d565b9050611be260408301866114c2565b611bef6060830185611428565b611bfc60808301846113a2565b9695505050505050565b7f5461736b20646f6573206e6f7420657869737400000000000000000000000000600082015250565b6000611c3c601383611442565b9150611c4782611c06565b602082019050919050565b60006020820190508181036000830152611c6b81611c2f565b9050919050565b7f4e487b7100000000000000000000000000000000000000000000000000000000600052603260045260246000fd5b7f4e6f74207461736b206f776e6572000000000000000000000000000000000000600082015250565b6000611cd7600e83611442565b9150611ce282611ca1565b602082019050919050565b60006020820190508181036000830152611d0681611cca565b9050919050565b7f5461736b20686173206265656e2064656c657465640000000000000000000000600082015250565b6000611d43601583611442565b9150611d4e82611d0d565b602082019050919050565b60006020820190508181036000830152611d7281611d36565b9050919050565b6000604082019050611d8e6000830185611428565b611d9b60208301846114c2565b9392505050565b6000604082019050611db76000830185611428565b8181036020830152611dc9818461147d565b9050939250505056fea26469706673582212208adade81d0c8f5bb01d26f2cf75b00c50b6d79340800fb2594dda660b3c0788b64736f6c63430008120033",
    "linkReferences": {},
    "deployedLinkReferences": {}
}